:100000000C9434000C943E000C943E000C943E0082
:100010000C943E000C943E000C943E000C943E0068
:100020000C943E000C943E000C943E000C943E0058
:100030000C943E000C943E000C943E000C943E0048
:100040000C943E000C943E000C943E000C943E0038
:100050000C943E000C943E000C943E000C943E0028
:100060000C943E000C943E0011241FBECFEFD8E04C
:10007000DEBFCDBF0E9440000C9435040C940000FC
:100080008FEF87B984B91AB818B888E385B983E0C7
:100090008BB931E0DFE0C0E8B4E578E665E680E200
:1000A000ADE49FE624E752E70F2EF1E66F2EF02D28
:1000B0000F2EF0EC5F2EF02D0F2EF3E5FF2EF02D1E
:1000C00000E718E10F2EF3E6EF2EF02D0F2EFDE6E0
:1000D000AF2EF02D0F2EF3E7BF2EF02D0F2EF5E7EC
:1000E000CF2EF02D0F2EFCE68F2EF02D0F2EF9E6E1
:1000F000DF2EF02D6894992494F86894772473F88F
:1001000049B1413009F037C1429A4298E7EAF1E635
:100110003197F1F700C0000035B9429A4298E7EAFA
:10012000F1E63197F1F700C00000D5B9429A429844
:10013000E3EDF0E33197F1F700C00000C5B9429A52
:100140004298EFE4F3EC3197F1F700C00000409AD9
:10015000B5B9429A4298E7EAF1E63197F1F700C063
:10016000000075B9429A4298E7EAF1E63197F1F753
:1001700000C0000065B9429A4298E7EAF1E631977B
:10018000F1F700C0000085B9429A4298E7EAF1E62B
:100190003197F1F700C00000A5B9429A4298E7EA0A
:1001A000F1E63197F1F700C0000095B9429A429804
:1001B000E7EAF1E63197F1F700C0000025B9429A6D
:1001C0004298E7EAF1E63197F1F700C0000095B9EF
:1001D000429A4298E7EAF1E63197F1F700C0000051
:1001E00055B9429A4298E7EAF1E63197F1F700C033
:1001F000000085B9429A4298E7EAF1E63197F1F7B3
:1002000000C00000E5B8429A4298E7EAF1E631976B
:10021000F1F700C0000095B9429A4298E7EAF1E68A
:100220003197F1F700C00000A5B8429A4298E7EA7A
:10023000F1E63197F1F700C0000065B9429A4298A3
:10024000E7EAF1E63197F1F700C00000B5B8429A4D
:100250004298E7EAF1E63197F1F700C0000085B96E
:10026000429A4298E7EAF1E63197F1F700C00000C0
:1002700018B855B8429A4298E7EAF1E63197F1F793
:1002800000C00000409A95B9429A4298E7EAF1E628
:100290003197F1F700C00000C5B8429A4298E7EAEA
:1002A000F1E63197F1F700C0000025B9429A429873
:1002B000E7EAF1E63197F1F700C0000085B9429A0C
:1002C0004298E7EAF1E63197F1F700C0000075B90E
:1002D000429A4298E7EAF1E63197F1F700C0000050
:1002E00095B9429A4298E7EAF1E63197F1F700C0F2
:1002F000000025B9429A4298E7EAF1E63197F1F712
:1003000000C0000085B9429A4298E7EAF1E63197C9
:10031000F1F700C0000065B8429A4298E7EAF1E6BA
:100320003197F1F700C00000D5B8429A4298E7EA49
:10033000F1E63197F1F700C0000055B9429A4298B2
:10034000E7EAF1E63197F1F700C0000078B8FFE383
:100350004DE0E3E0F1504040E040E1F700C0000034
:1003600018B8FFE34DE0E3E0F1504040E040E1F732
:1003700000C0000070C249B1423009F049C1429A40
:100380004298E7EAF1E63197F1F700C0000035B98D
:10039000429A4298E7EAF1E63197F1F700C000008F
:1003A000D5B9429A4298E3EDF0E33197F1F700C0F6
:1003B0000000C5B9429A4298EFE4F3EC3197F1F7A7
:1003C00000C00000409AB5B9429A4298E7EAF1E6C7
:1003D0003197F1F700C0000075B9429A4298E7EAF8
:1003E000F1E63197F1F700C0000065B9429A4298F2
:1003F000E7EAF1E63197F1F700C0000085B9429ACB
:100400004298E7EAF1E63197F1F700C00000A5B99C
:10041000429A4298E7EAF1E63197F1F700C000000E
:1004200095B9429A4298E7EAF1E63197F1F700C0B0
:10043000000025B9429A4298E7EAF1E63197F1F7D0
:1004400000C0000095B9429A4298E7EAF1E6319778
:10045000F1F700C0000055B9429A4298E7EAF1E688
:100460003197F1F700C0000085B9429A4298E7EA57
:10047000F1E63197F1F700C00000E5B8429A4298E2
:10048000E7EAF1E63197F1F700C0000095B9429A2A
:100490004298E7EAF1E63197F1F700C00000A5B80D
:1004A000429A4298E7EAF1E63197F1F700C000007E
:1004B00065B9429A4298E7EAF1E63197F1F700C050
:1004C0000000B5B8429A4298E7EAF1E63197F1F7B1
:1004D00000C0000085B9429A4298E7EAF1E63197F8
:1004E000F1F700C0000018B855B8429A4298E7EA00
:1004F000F1E63197F1F700C00000409A95B9429AB1
:100500004298E7EAF1E63197F1F700C00000C5B87C
:10051000429A4298E7EAF1E63197F1F700C000000D
:1005200025B9429A4298E7EAF1E63197F1F700C01F
:10053000000085B9429A4298E7EAF1E63197F1F76F
:1005400000C00000E5B8429A4298E7EAF1E6319728
:10055000F1F700C0000095B9429A4298E7EAF1E647
:100560003197F1F700C0000095B9429A4298E7EA46
:10057000F1E63197F1F700C0000085B8429A429841
:10058000E7EAF1E63197F1F700C0000085B9429A39
:100590004298E7EAF1E63197F1F700C0000065B84C
:1005A000429A4298E7EAF1E63197F1F700C000007D
:1005B000D5B8429A4298E7EAF1E63197F1F700C0E0
:1005C000000055B9429A4298E7EAF1E63197F1F70F
:1005D00000C0000085B9429A4298E7EAF1E63197F7
:1005E000F1F700C0000098B8FFE34DE0E3E0F15000
:1005F0004040E040E1F700C0000018B9FFE34DE0E3
:10060000E3E0F1504040E040E1F700C0000023C1CA
:10061000429A4298E7EAF1E63197F1F700C000000C
:1006200035B9429A4298E7EAF1E63197F1F700C00E
:100630000000D5B9429A4298E3EDF0E33197F1F723
:1006400000C00000C5B9429A4298EFE4F3EC31973C
:10065000F1F700C00000409AB5B9429A4298E7EA23
:10066000F1E63197F1F700C0000075B9429A42985F
:10067000E7EAF1E63197F1F700C0000065B9429A68
:100680004298E7EAF1E63197F1F700C0000085B93A
:10069000429A4298E7EAF1E63197F1F700C000008C
:1006A000A5B9429A4298E7EAF1E63197F1F700C01E
:1006B000000095B9429A4298E7EAF1E63197F1F7DE
:1006C00000C0000025B9429A4298E7EAF1E6319766
:1006D000F1F700C0000095B9429A4298E7EAF1E6C6
:1006E0003197F1F700C0000055B9429A4298E7EA05
:1006F000F1E63197F1F700C0000085B9429A4298BF
:10070000E7EAF1E63197F1F700C0000065B8429AD8
:100710004298E7EAF1E63197F1F700C0000055B9D9
:10072000429A4298E7EAF1E63197F1F700C00000FB
:1007300065B9429A4298E7EAF1E63197F1F700C0CD
:10074000000085B9429A4298E7EAF1E63197F1F75D
:1007500000C0000018B855B8429A4298E7EAF1E69E
:100760003197F1F700C00000409A85B9429A42984B
:10077000E7EAF1E63197F1F700C0000085B9429A47
:100780004298E7EAF1E63197F1F700C0000085B939
:10079000429A4298E7EAF1E63197F1F700C000008B
:1007A00085B9429A4298E7EAF1E63197F1F700C03D
:1007B000000085B9429A4298E7EAF1E63197F1F7ED
:1007C00000C00000F5B8429A4298E7EAF1E6319796
:1007D000F1F700C0000025B9429A4298E7EAF1E635
:1007E0003197F1F700C0000095B9429A4298E7EAC4
:1007F000F1E63197F1F700C0000005B9429A42983E
:10080000E7EAF1E63197F1F700C0000085B9429AB6
:100810004298E7EAF1E63197F1F700C0000085B9A8
:10082000429A4298E7EAF1E63197F1F700C00000FA
:1008300085B9429A4298E7EAF1E63197F1F700C0AC
:10084000000018B9FFE34DE0E3E0F1504040E04024
:10085000E1F700C0000035B9429A4298E7EAF1E6B4
:0E0860003197F1F700C000004BCCF894FFCFA9
:00000001FF
