S01700004763634170706C69636174696F6E312E737265635B
S11300000C9434000C943E000C943E000C943E007E
S11300100C943E000C943E000C943E000C943E0064
S11300200C943E000C943E000C943E000C943E0054
S11300300C943E000C943E000C943E000C943E0044
S11300400C943E000C943E000C943E000C943E0034
S11300500C943E000C943E000C943E000C943E0024
S11300600C943E000C943E0011241FBECFEFD8E048
S1130070DEBFCDBF0E9440000C9403030C9400002B
S11300808FEF87B984B91AB818B888E385B983E0C3
S11300908BB931E00F2EFFE0EF2EF02D6894FF2492
S11300A0F7F804E5F8E675E620E26DE69FE644E736
S11300B052E7E3E613E7D0ECC5E70F2EF1E69F2EF7
S11300C0F02D0F2EF9E68F2EF02D6894AA24A3F8B4
S11300D00F2EFCE6BF2EF02D6894CC24C4F80F2E0E
S11300E0F8E1DF2EF02D89B1813009F036C1429A52
S11300F04298A7EAB1E61197F1F700C0000035B9BC
S1130100429A4298A7EAB1E61197F1F700C00000BD
S1130110E5B8429A4298A3EDB0E31197F1F700C015
S11301200000F5B8429A4298AFE4B3EC1197F1F7A6
S113013000C00000409A05B9429A4298A7EAB1E685
S11301401197F1F700C00000F5B9429A4298A7EA66
S1130150B1E61197F1F700C0000075B9429A4298D0
S1130160A7EAB1E61197F1F700C0000025B9429A59
S11301704298A7EAB1E61197F1F700C0000065B90B
S1130180429A4298A7EAB1E61197F1F700C000003D
S113019095B9429A4298A7EAB1E61197F1F700C0DF
S11301A0000045B9429A4298A7EAB1E61197F1F7DF
S11301B000C0000095B9429A4298A7EAB1E61197A7
S11301C0F1F700C0000055B9429A4298A7EAB1E697
S11301D01197F1F700C0000025B9429A4298A7EAA6
S11301E0B1E61197F1F700C00000E5B9429A4298D0
S11301F0A7EAB1E61197F1F700C0000095B9429A59
S11302004298A7EAB1E61197F1F700C0000065B97A
S1130210429A4298A7EAB1E61197F1F700C00000AC
S113022075B9429A4298A7EAB1E61197F1F700C06E
S1130230000015B9429A4298A7EAB1E61197F1F77E
S113024000C0000025B9429A4298A7EAB1E6119786
S1130250F1F700C0000018B8D5B9429A4298A7EA4D
S1130260B1E61197F1F700C00000409A95B9429A9F
S11302704298A7EAB1E61197F1F700C00000C5B9AA
S1130280429A4298A7EAB1E61197F1F700C000003C
S113029045B9429A4298A7EAB1E61197F1F700C02E
S11302A0000025B9429A4298A7EAB1E61197F1F7FE
S11302B000C00000F5B9429A4298A7EAB1E6119746
S11302C0F1F700C0000095B9429A4298A7EAB1E656
S11302D01197F1F700C0000045B9429A4298A7EA85
S11302E0B1E61197F1F700C0000025B9429A42988F
S11302F0A7EAB1E61197F1F700C0000095B8429A59
S11303004298A7EAB1E61197F1F700C0000085B85A
S1130310429A4298A7EAB1E61197F1F700C00000AB
S113032055B9429A4298A7EAB1E61197F1F700C08D
S11303300000A8B8BFE38DE0A3E0B1508040A04026
S1130340E1F700C0000018B8BFE38DE0A3E0B150AE
S11303508040A040E1F700C0000089B1823009F07C
S113036048C1429A4298A7EAB1E61197F1F700C052
S1130370000035B9429A4298A7EAB1E61197F1F71D
S113038000C00000E5B8429A4298A3EDB0E311978B
S1130390F1F700C00000F5B8429A4298AFE4B3EC1C
S11303A01197F1F700C00000409A05B9429A4298AB
S11303B0A7EAB1E61197F1F700C00000F5B9429A37
S11303C04298A7EAB1E61197F1F700C0000075B9A9
S11303D0429A4298A7EAB1E61197F1F700C00000EB
S11303E025B9429A4298A7EAB1E61197F1F700C0FD
S11303F0000065B9429A4298A7EAB1E61197F1F76D
S113040000C0000095B9429A4298A7EAB1E6119754
S1130410F1F700C0000045B9429A4298A7EAB1E654
S11304201197F1F700C0000095B9429A4298A7EAE3
S1130430B1E61197F1F700C0000055B9429A42980D
S1130440A7EAB1E61197F1F700C0000025B9429A76
S11304504298A7EAB1E61197F1F700C00000E5B9A8
S1130460429A4298A7EAB1E61197F1F700C000005A
S113047095B9429A4298A7EAB1E61197F1F700C0FC
S1130480000065B9429A4298A7EAB1E61197F1F7DC
S113049000C0000075B9429A4298A7EAB1E61197E4
S11304A0F1F700C0000015B9429A4298A7EAB1E6F4
S11304B01197F1F700C0000025B9429A4298A7EAC3
S11304C0B1E61197F1F700C0000018B8D5B9429A07
S11304D04298A7EAB1E61197F1F700C00000409AEC
S11304E095B9429A4298A7EAB1E61197F1F700C08C
S11304F00000C5B9429A4298A7EAB1E61197F1F70C
S113050000C0000045B9429A4298A7EAB1E61197A3
S1130510F1F700C0000025B9429A4298A7EAB1E673
S11305201197F1F700C00000E5B9429A4298A7EA92
S1130530B1E61197F1F700C0000095B9429A4298CC
S1130540A7EAB1E61197F1F700C0000095B9429A05
S11305504298A7EAB1E61197F1F700C00000B5B8D8
S1130560429A4298A7EAB1E61197F1F700C0000059
S113057025B9429A4298A7EAB1E61197F1F700C06B
S1130580000095B8429A4298A7EAB1E61197F1F7AC
S113059000C0000085B8429A4298A7EAB1E61197D4
S11305A0F1F700C0000055B9429A4298A7EAB1E6B3
S11305B01197F1F700C0000025B9429A4298A7EAC2
S11305C0B1E61197F1F700C00000C8B8BFE38DE0B1
S11305D0A3E0B1508040A040E1F700C00000D8B8CB
S11305E0BFE38DE0A3E0B1508040A040E1F700C03C
S11305F0000035B9429A4298A7EAB1E61197F1F79B
S10D060000C0000070CDF894FFCF95
S9030000FC
